:020000040800F2
:100000000000022091240008A9230008AB23000867
:10001000AD230008AF230008B12300080000000052
:10002000000000000000000000000000A1560008D1
:10003000B32300080000000031570008253A0008EB
:10004000E1240008E1240008E1240008E12400087C
:10005000E1240008E1240008E1240008E12400086C
:10006000E1240008E1240008E1240008E12400085C
:10007000E1240008E1240008E1240008E12400084C
:10008000E1240008E1240008E1240008E12400083C
:10009000E1240008E1240008E1240008E12400082C
:1000A000E1240008B5230008E1240008E124000849
:1000B000E1240008E1240008E1240008E12400080C
:1000C000E1240008E1240008E1240008E1240008FC
:1000D000E1240008E1240008E1240008E1240008EC
:1000E000E1240008E1240008E1240008E1240008DC
:1000F000E1240008E1240008E1240008E1240008CC
:10010000E1240008E1240008E1240008E1240008BB
:10011000E1240008E1240008E1240008E1240008AB
:10012000E1240008E1240008E1240008E12400089B
:10013000E12400080000000000000000E1240008A5
:10014000E1240008E1240008E1240008E12400087B
:10015000E1240008C1230008E1240008E12400088C
:10016000E1240008E1240008E1240008E12400085B
:10017000E1240008E1240008000000000000000065
:08018000E1240008E12400085D
:1001900010B5054C237833B9044B13B10448AFF3C1
:1001A00000800123237010BDEC010020000000003E
:1001B000F88D000808B5034B1BB103490348AFF3A2
:1001C000008008BD00000000F0010020F88D00084C
:1001D000034613F8012B002AFBD1181A0138704787
:1001E00001F0FF01102A2BDB10F0070F08D010F8E8
:1001F000013B013A8B422DD010F0070F42B3F6D1EC
:10020000F0B441EA012141EA014122F007047FF004
:1002100000070023F0E80256083C85EA010586EA5B
:10022000010685FA47F5A3FA87F586FA47F6A5FA97
:1002300087F68EB9EED1F0BC01F0FF0102F00702A3
:1002400032B110F8013B013A83EA010313B1F8D14E
:100250000020704701387047002D06BF354603382F
:10026000073815F0010F07D1013015F4807F02BF68
:10027000013015F4C03F0130F0BC0138704700BFB9
:1002800081F0004102E000BF83F0004330B54FEA47
:1002900041044FEA430594EA050F08BF90EA020FB4
:1002A0001FBF54EA000C55EA020C7FEA645C7FEA47
:1002B000655C00F0E2804FEA5454D4EB5555B8BF6A
:1002C0006D420CDD2C4480EA020281EA030382EADB
:1002D000000083EA010180EA020281EA0303362D6D
:1002E00088BF30BD11F0004F4FEA01314FF4801C40
:1002F0004CEA113102D0404261EB410113F0004F52
:100300004FEA03334CEA133302D0524263EB430308
:1003100094EA050F00F0A780A4F10104D5F1200EA6
:100320000DDB02FA0EFC22FA05F2801841F1000101
:1003300003FA0EF2801843FA05F359410EE0A5F1D5
:1003400020050EF1200E012A03FA0EFC28BF4CF006
:10035000020C43FA05F3C01851EBE37101F00045BC
:1003600007D54FF0000EDCF1000C7EEB00006EEBC9
:100370000101B1F5801F1BD3B1F5001F0CD3490853
:100380005FEA30004FEA3C0C04F101044FEA4452AA
:1003900012F5800F80F09A80BCF1004F08BF5FEA31
:1003A000500C50F1000041EB045141EA050130BD11
:1003B0005FEA4C0C404141EB0101013C28BFB1F523
:1003C000801FE9D291F0000F04BF01460020B1FA6E
:1003D00081F308BF2033A3F10B03B3F120020CDA41
:1003E0000C3208DD02F1140CC2F10C0201FA0CF01F
:1003F00021FA02F10CE002F11402D8BFC2F1200C84
:1004000001FA02F120FA0CFCDCBF41EA0C01904039
:10041000E41AA2BF01EB0451294330BD6FEA040482
:100420001F3C1CDA0C340EDC04F11404C4F120026D
:1004300020FA04F001FA02F340EA030021FA04F37F
:1004400045EA030130BDC4F10C04C4F1200220FAD6
:1004500002F001FA04F340EA0300294630BD21FA14
:1004600004F0294630BD94F0000F83F4801306BFDA
:1004700081F480110134013D4EE77FEA645C18BFCE
:100480007FEA655C29D094EA050F08BF90EA020F65
:1004900005D054EA000C04BF1946104630BD91EA5D
:1004A000030F1EBF0021002030BD5FEA545C05D160
:1004B0004000494128BF41F0004130BD14F580049F
:1004C0003CBF01F5801130BD01F0004545F0FE4113
:1004D00041F470014FF0000030BD7FEA645C1ABF48
:1004E000194610467FEA655C1CBF0B46024650EA7F
:1004F000013406BF52EA033591EA030F41F40021AB
:1005000030BD00BF90F0000F04BF0021704730B530
:100510004FF4806404F132044FF000054FF0000105
:1005200050E700BF90F0000F04BF0021704730B5C6
:100530004FF4806404F1320410F0004548BF40429B
:100540004FF000013EE700BF42004FEAE2014FEAF0
:1005500031014FEA02701FBF12F07F4393F07F4FCB
:1005600081F06051704732F07F4208BF704793F0CE
:100570007F4F04BF41F40021704730B54FF46074E1
:1005800001F0004521F000411CE700BF50EA0102E4
:1005900008BF704730B54FF000050AE050EA01028D
:1005A00008BF704730B511F0004502D5404261EBFD
:1005B00041014FF4806404F132045FEA915C3FF43E
:1005C000D8AE4FF003025FEADC0C18BF03325FEADB
:1005D000DC0C18BF033202EBDC02C2F1200300FA8C
:1005E00003FC20FA02F001FA03FE40EA0E0021FAB1
:1005F00002F11444BDE600BF70B54FF0FF0C4CF49F
:10060000E06C1CEA11541DBF1CEA135594EA0C0F50
:1006100095EA0C0F00F0DEF82C4481EA030621EA8B
:100620004C5123EA4C5350EA013518BF52EA0335C6
:1006300041F4801143F4801338D0A0FB02CE4FF078
:100640000005E1FB02E506F00042E0FB03E54FF0A8
:100650000006E1FB03569CF0000F18BF4EF0010EA0
:10066000A4F1FF04B6F5007F64F5407404D25FEA9C
:100670004E0E6D4146EB060642EAC62141EA55514F
:100680004FEAC52040EA5E504FEACE2EB4F1FD0C91
:1006900088BFBCF5E06F1ED8BEF1004F08BF5FEA0F
:1006A000500E50F1000041EB045170BD06F00046C1
:1006B00046EA010140EA020081EA0301B4EB5C046E
:1006C000C2BFD4EB0C0541EA045170BD41F4801166
:1006D0004FF0000E013C00F3AB8014F1360FDEBF8B
:1006E000002001F0004170BDC4F10004203C35DA67
:1006F0000C341BDC04F11404C4F1200500FA05F3EA
:1007000020FA04F001FA05F240EA020001F000428A
:1007100021F0004110EBD37021FA04F642EB060100
:100720005EEA430E08BF20EAD37070BDC4F10C042A
:10073000C4F1200500FA04F320FA05F001FA04F2EE
:1007400040EA020001F0004110EBD37041F10001DA
:100750005EEA430E08BF20EAD37070BDC4F12005E5
:1007600000FA05F24EEA020E20FA04F301FA05F24D
:1007700043EA020321FA04F001F0004121FA04F2F5
:1007800020EA020000EBD3705EEA430E08BF20EAC5
:10079000D37070BD94F0000F0FD101F000464000FF
:1007A00041EB010111F4801F08BF013CF7D041EA81
:1007B000060195F0000F18BF704703F00046520085
:1007C00043EB030313F4801F08BF013DF7D043EA56
:1007D0000603704794EA0C0F0CEA135518BF95EA0C
:1007E0000C0F0CD050EA410618BF52EA4306D1D193
:1007F00081EA030101F000414FF0000070BD50EAB2
:10080000410606BF1046194652EA430619D094EA3B
:100810000C0F02D150EA013613D195EA0C0F05D125
:1008200052EA03361CBF104619460AD181EA030179
:1008300001F0004141F0FE4141F470014FF0000031
:1008400070BD41F0FE4141F4780170BD70B54FF0CC
:10085000FF0C4CF4E06C1CEA11541DBF1CEA13554C
:1008600094EA0C0F95EA0C0F00F0A7F8A4EB05042E
:1008700081EA030E52EA03354FEA013100F0888025
:100880004FEA03334FF0805545EA131343EA1263EE
:100890004FEA022245EA111545EA10654FEA0026A3
:1008A0000EF000419D4208BF964244F1FD0404F55C
:1008B000407402D25B084FEA3202B61A65EB0305B8
:1008C0005B084FEA32024FF480104FF4002CB6EB75
:1008D000020E75EB030E22BFB61A754640EA0C00F5
:1008E0005B084FEA3202B6EB020E75EB030E22BF35
:1008F000B61A754640EA5C005B084FEA3202B6EB76
:10090000020E75EB030E22BFB61A754640EA9C0034
:100910005B084FEA3202B6EB020E75EB030E22BF04
:10092000B61A754640EADC0055EA060E18D04FEAC2
:10093000051545EA16754FEA06164FEAC30343EA62
:1009400052734FEAC2025FEA1C1CC0D111F4801F2F
:100950000BD141EA00014FF000004FF0004CB6E728
:1009600011F4801F04BF01430020B4F1FD0C88BFC7
:10097000BCF5E06F3FF6AFAEB5EB030C04BFB6EBD2
:10098000020C5FEA500C50F1000041EB045170BDC5
:100990000EF0004E4EEA113114EB5C04C2BFD4EBF2
:1009A0000C0541EA045170BD41F480114FF0000E76
:1009B000013C90E645EA060E8DE60CEA135594EAF2
:1009C0000C0F08BF95EA0C0F3FF43BAF94EA0C0FF5
:1009D0000AD150EA01347FF434AF95EA0C0F7FF46A
:1009E00025AF104619462CE795EA0C0F06D152EABE
:1009F00003353FF4FDAE1046194622E750EA4106A2
:100A000018BF52EA43067FF4C5AE50EA41047FF4B2
:100A10000DAF52EA43057FF4EBAE12E74FF0FF3C17
:100A200006E000BF4FF0010C02E000BF4FF0010CE8
:100A30004DF804CD4FEA410C7FEA6C5C4FEA430C61
:100A400018BF7FEA6C5C1BD001B050EA410C0CBFB0
:100A500052EA430C91EA030F02BF90EA020F002012
:100A6000704710F1000F91EA030F58BF994208BF79
:100A700090422CBFD8176FEAE37040F00100704736
:100A80004FEA410C7FEA6C5C02D150EA013C07D18D
:100A90004FEA430C7FEA6C5CD6D152EA033CD3D0D8
:100AA0005DF8040B704700BF8446104662468C46D2
:100AB0001946634600E000BF01B5FFF7B7FF002805
:100AC00048BF10F1000F01BD4DF808EDFFF7F4FF2E
:100AD0000CBF012000205DF808FB00BF4DF808EDB9
:100AE000FFF7EAFF34BF012000205DF808FB00BFDC
:100AF0004DF808EDFFF7E0FF94BF012000205DF8FE
:100B000008FB00BF4DF808EDFFF7CEFF94BF0120B2
:100B100000205DF808FB00BF4DF808EDFFF7C4FFAB
:100B200034BF012000205DF808FB00BF4A0011D24D
:100B300012F5001211D20DD56FF47873B3EB625237
:100B40000ED44FEAC12343F0004343EA505323FA43
:100B500002F070474FF00000704750EA013002D1B8
:100B60004FF0FF3070474FF00000704753B94AB95B
:100B7000002908BF00281CBF4FF0FF314FF0FF30A5
:100B800000F0BEB9ADF1080C6DE904CE00F03CF800
:100B9000DDF804E0DDE9022304B0704738B5002237
:100BA000002304460D46FFF799FF28B92046294641
:100BB000BDE8384000F00AB8204605F1004100F0D9
:100BC00005F8404261EB410138BD00BFD0B50C4B88
:100BD000002206460F46FFF70FFDFFF7A7FF04466A
:100BE000FFF790FC074B0022FFF706FD02460B467D
:100BF00030463946FFF748FBFFF798FF2146D0BD46
:100C00000000F03D0000F0412DE9F047089D8E46C0
:100C100004468846002B4AD18A42174662D9B2FA66
:100C200082F64EB1C6F1200301FA06F820FA03F36A
:100C3000B74043EA0808B4404FEA174E1FFA87FC52
:100C4000B8FBFEF1230C0EFB118843EA084301FBBD
:100C50000CF29A4209D9FB1801F1FF3080F0EA80CA
:100C60009A4240F2E78002393B449A1AA3B2B2FB9F
:100C7000FEF00EFB102243EA024300FB0CFC9C45F5
:100C800009D9FB1800F1FF3280F0D6809C4540F274
:100C9000D3803B44023840EA0140A3EB0C0300211F
:100CA0001DB1F3400022C5E90032BDE8F0878B4258
:100CB00005D90DB1C5E9000100210846F5E7B3FAF1
:100CC00083F1002946D1734502D3824200F20581A7
:100CD000841A6EEB030201209046002DE5D0C5E991
:100CE0000048E2E7002A00F09080B2FA82F6002E77
:100CF00040F0A4808A1A030C4FEA174E80B2BCB2AF
:100D00000121B2FBFEFC0EFB1C2243EA024304FB62
:100D10000CF29A4207D9FB180CF1FF3802D29A4222
:100D200000F2E080C4469B1AB3FBFEF20EFB1233C6
:100D300040EA034302FB04F49C4207D9FB1802F18A
:100D4000FF3002D29C4200F2CA8002461B1B42EADC
:100D50000C40A5E7C1F120068B4022FA06F71F439D
:100D60000EFA01F420FA06F32EFA06FE4FEA1749AE
:100D7000234300FA01F81FFA87FCBEFBF9F01C0CB4
:100D800009FB10EE44EA0E4400FB0CFEA64502FAF5
:100D900001F209D93C1900F1FF3A80F09C80A64588
:100DA00040F2998002383C44A4EB0E041FFA83FE03
:100DB000B4FBF9F309FB13444EEA044403FB0CFCB7
:100DC000A44508D93C1903F1FF3E80F08280A44578
:100DD0007FD9023B3C4443EA0040A4EB0C04A0FB57
:100DE00002EC64457346E14662D35FD05DB1B8EB77
:100DF000030264EB090404FA06F622FA01F31E4327
:100E0000CC40C5E9006400214FE7B1FBF2FC010CC6
:100E100041EA0E4180B240EA01423B4638463C4638
:100E2000B846BE462026B1FBF7F1A2EB080241EA24
:100E30000C4166E7014618E710462CE7C6F1200290
:100E40002EFA02F3B740B14020FA02F24FEA174EF1
:100E50000A43B3FBFEF8BCB20EFB1833110C41EA97
:100E6000034108FB04F9B04089454FEA104380B2C2
:100E70003ED9791808F1FF3C01D289451FD8A1EB72
:100E80000901B1FBFEF909FB04F80EFB191192B23E
:100E900042EA0142424529D2BA1809F1FF31C4D2CF
:100EA0004245C2D2A9F102013A44BEE7F0459DD2C3
:100EB000BEEB02036CEB070C0138E14696E7A7EBAB
:100EC00009094944A8F1020CB1FBFEF909FB04F839
:100ED000DBE773467FE7504666E70846FDE63B449E
:100EE000023A33E7ACF1020C3B441CE749469CE76D
:100EF000A1EB0901C446B1FBFEF909FB04F8C4E704
:100F0000704700BF30B50B4D024601444FF6FF70ED
:100F100012F8013B0824584040F300032B4083EAB9
:100F2000500398B2631E13F0FF04F5D18A42EFD14B
:100F300030BD00BF01A0FFFF10B5094C00222046C4
:100F40004FF4006101F07CFD204600224FF48051F7
:100F500001F076FDBDE81040012002F0E8BD00BFC1
:100F60000000024010B5094C012220464FF40061F8
:100F700001F066FD204601224FF4805101F060FD32
:100F8000BDE81040012002F0D2BD00BF00000240C9
:100F90002DE9F0472DED028BDFF894901F4F204D87
:100FA00084B0D9F800006423002201A902F0B1FE48
:100FB000044638BB4FF0FF3138681A4E02F0FBFD93
:100FC00095F808A0386895ED008A95F8098002F038
:100FD00015FEBAF1000F1AD09DED010A1248F0EE8D
:100FE000480A01F0ACF8F6EE007AB4EEE70AF1EE4A
:100FF00010FAC7BF01223270347022460B482021FC
:1010000001F01EFD4FF47A7002F091FDC9E7B8F1CE
:10101000000286F8008018BF0122EFE76403002079
:10102000080000205D03002094030020000002401F
:10103000740300202DE9F04F2DED028BDFF8ACA0FA
:10104000244F254E85B0DAF800006423002201A960
:1010500002F05FFE0446C8B94FF0FF3138681F4DFB
:1010600002F0A9FD386896ED018A96F808B096F866
:101070000A8002F0C3FD1A4B1B7803F0FF0953B13D
:101080002C7022461748402101F0DAFC4FF47A70A8
:1010900002F04DFDD7E7BBF1000F13D09DED020A22
:1010A0001148F0EE480A01F04AF8F6EE007AB4EE84
:1010B000E70AF1EE10FAC7BF01222A7085F8009006
:1010C0004A46DFE7B8F1000285F8008018BF012228
:1010D000D8E700BF64030020080000205C03002064
:1010E0005A0300200000024078030020740300200F
:1010F00010B50446FFF76CF8214682B2BDE81040F7
:1011000002484FF47A7302F0E8BB00BF7406002077
:101110002DE9F04707460D4602F0BEFCDFF84C8093
:10112000DFF84CA00646002404EB080902F0B4FCEA
:10113000801BA84202D30020BDE8F0870A230122C9
:101140004946504602F017FC0028EFD10134A4B202
:10115000394608F80400054805F088FD18B9FF2C49
:1011600008BF0024E0E70120E6E700BF18020020E6
:1011700074060020F7B500224FF480714A484B4CAA
:1011800001F05EFC642002F0D2FC474801224FF4DB
:10119000807101F055FC40F6B83002F0C8FC0A231B
:1011A00001220DF10701204602F0E5FB0028F6D0F0
:1011B0003F4E404F00253046FFF79AFF4FF47A71BB
:1011C0003846FFF7A5FF044648B94FF4FA700135D9
:1011D00002F0ADFC052DEED1374B1C701BE03748FB
:1011E000324CFFF785FF4FF4FA6002F0A0FC0A23AF
:1011F00001220DF10701204602F0BDFB0028F6D0C8
:101200002F482D4CFFF774FF2A484FF4FA61FFF77F
:101210007FFF10B9207003B0F0BD2A48FFF768FFC8
:10122000244841F28831FFF773FF0028F2D02648A6
:10123000FFF75EFF4FF4FA611E48FFF769FF23488E
:10124000FFF756FF4FF4FA611A48FFF761FF204895
:10125000FFF74EFF17484FF4FA61FFF759FF0246B8
:10126000F8B11C4801252570FFF742FF4FF47A7151
:101270001048FFF74DFF1848FFF73AFF4FF47A7117
:101280000C48FFF745FF1548FFF732FF14484FF4AD
:10129000FA61FFF73DFF2A461248802101F0D0FB9A
:1012A000B9E72070F8E700BF00080240740600208C
:1012B000108E00088A9100085B030020158E00083C
:1012C000228E0008308E0008578E0008708E0008AD
:1012D0007E8E0008928E0008A18E0008B18E000854
:1012E000BD8E00080004024080B592B0FFF742FFB7
:1012F0004F4E504D306800231A4602A902F009FDF6
:1013000058B94D494D4FDFF85C81DFF85C9101AA77
:1013100002A805F0A8FC0446CCB902F0BDFB2B687E
:1013200042F21072C31A934204460BD9444B1B7805
:101330003BB14448FFF7DCFE43484FF47A71FFF7B6
:10134000E7FE2C604FF47A7002F0F1FBD2E73946E9
:10135000204605F08BFC58B1601D04F0F2FB3B4BBE
:101360001872354901AA002005F07DFC0446D3E738
:101370004146204605F07AFC30B104F1080004F043
:10138000E0FB324B5872ECE74946204605F06EFC14
:1013900030B104F10F0004F0D4FB2C4B9872E0E75D
:1013A0002B49204605F062FCF0B104F10E0004F078
:1013B000C5FB07EE900AF8EEE77ABAEE047AF4EE8F
:1013C000C77AF1EE10FA0CD49FED227AF4EE477A48
:1013D000F1EE10FAC8BFF0EE477A1C4BC3ED007A6D
:1013E000BFE7F0EE477AF8E71B49204605F03EFCE0
:1013F0000028B6D004F10D0004F0A0FB07EE900A1F
:10140000F8EEE77AF5EEC07AF1EE10FA0CD49FED23
:10141000137AF4EE477AF1EE10FAC8BFF0EE477A8D
:101420000A4BC3ED017A9CE7DFED0D7AF8E700BFC8
:101430006C0300200C020020C58E0008C88E000836
:101440005B030020048F00080F8F000808000020B5
:10145000E78E000800007042F68E00080000C842C7
:1014600000000000CE8E0008D78E00082DE9F04F56
:10147000ADF66C3D4FF400622D900021DAA805F026
:101480006EFB904A904C10685168904EDFF898A21D
:10149000DFF89882DFF898B232AB03C31189927AF1
:1014A00019809A708A4B186830909B888948ADF8EB
:1014B000C430002235A901F08DFF00222FA98548F4
:1014C00001F0ABFF9DF8BF209DF8BE30824900932C
:1014D00002F5FA629DF8BD3032A805F0C1FA9DF818
:1014E000D5309DF8D4207D4930A805F0B9FA4FF4E5
:1014F000007200215AA805F032FB20684FF0FF313E
:1015000002F059FB0027B56885B3B5FBFAF970689E
:10151000FFF71AF8CDE906013068FFF715F8CDE9B5
:101520000401642042F21071B5FBF0F200FB12528C
:1015300003924B46B5FBF1F201FB1252B2FBF0F203
:101540003AA80292B5FBF8F208FB12520AFB1955B1
:10155000B2FBF1F2B5FBF8F50192802100955A46F5
:1015600005F048FA3AA95AA805F001FB0137302FD7
:1015700006F10C06C7D15A4D20685A4C02F03EFBCA
:101580004FF400625AA9DAA805F032FB4FF0FF31A0
:10159000286802F010FB544B2868D3F800B05E684E
:1015A00002F02CFB4FF0FF31206802F004FB4F4BA0
:1015B0002068D3F800A05D6893F8099093F80A803A
:1015C0001F7A02F01BFB4A4B58461B682C93FEF710
:1015D000BBFFCDE928015046FEF7B6FF82463046F4
:1015E0008B46FEF7B1FFCDE92A012846FEF7ACFF96
:1015F000404B414ACDE92601B9F1000F18BF1A4608
:101600003E493F4BB8F1000F18BF1946002F52D08A
:101610003C483D4CDFF81CE13C4D3D4B3D4E93F8C2
:1016200000C03D4B08929DED267B8DED207B8DED1E
:10163000187B8DED167B8DED067B9DED2A7BBCF135
:10164000000F18BF1E46DFF8F0C0344B1C968DED1E
:10165000047BB9F1000F0CBF1E4666469DED287B4A
:10166000B8F1000F0CBF9946E146002F18BF634642
:10167000CDE9239330AB1B9332ABCDE90D05CDE91A
:10168000091E1A93CDE902ABDAAB8DED007B2C9AE3
:101690002D9822964FF40061CDE91EABCDE912AB37
:1016A000CDE910ABCDE90B43149505F0A3F90DF688
:1016B0006C3DBDE8F08F1A481A4CDFF880E0054613
:1016C000ABE700BF8E90000860030020B403002049
:1016D00099900008040700202B9000083A90000819
:1016E0006803002064030020F405002008000020A7
:1016F00004000020178F0008398F0008818F000830
:10170000598F0008A78F0008AF8F0008D48F0008FA
:101710005B03002009900008F08F00082590000866
:101720006F8E0008DB8F000800E1F50540420F00D6
:1017300044900008CC8F000820900008E88F000833
:101740002DE9F04F8548864E864FADF6544D4FF447
:101750008072002105F003FA3378002B00F0EE8050
:1017600081480A234FF4807214A902F004F9054657
:10177000002856D114A979484FF4807205F013FA65
:101780007A49764805F072FA00284AD02C2105F0F3
:10179000FDF90446002844D0013004F0D2F93A2182
:1017A0008046204605F0F2F900283AD0411C40F26C
:1017B000FF1294A805F01CFA6D498DF84F5494A8B7
:1017C00005F054FA0DF58A6478B32046FFF74EFE13
:1017D0000DF58A60FEF7FCFC5FFA88F44021654A4B
:1017E0000090234654A805F005F954A8FFF780FCA3
:1017F00061484FF47A71FFF78BFC60B10DF58A6098
:10180000FFF776FC5D4A2346402154A805F0F2F824
:1018100054A8FFF76DFC51484FF48072002105F089
:101820009EF9322002F083F996E7554994A805F015
:101830001DFA0028C9D1534994A805F017FA0028C9
:1018400061D0514D4FF0FF31286802F0B4F94F4B91
:101850002868D3ED007A4E4DCDED117AD3F804907F
:1018600002F0CCF94FF0FF31286802F0A4F9494B9F
:101870002868D3F800A0D3F804B01B7A129302F0C2
:10188000BDF9454B45481D78454B1B7831780078AC
:10189000DBB21393434B1A78434B1B78CDE90B1003
:1018A000CDE90D235846129B0A93FEF74DFECDE974
:1018B00008015046FEF748FE139BCDE90601EDB244
:1018C0004846CDE90453FEF73FFECDE902011198E9
:1018D000FEF73AFECDE90001344B4FF400611A687F
:1018E000204605F087F82046FEF772FC4FF4807121
:1018F00003462F4A009454A805F07CF854A92046CA
:1019000005F09BFA64E72B4994A805F0AFF968B19C
:101910003F2194A805F03AF9014628B12648002352
:1019200000681A4602F0C4F92449E8E7244994A85B
:1019300005F09CF90028EBD12249E0E702F0ACF871
:101940003B68C01A47F2305398427FF66AAFFFF700
:1019500011FC02F0A1F8386063E700BF1802002014
:101960005B03002008020020740600209F900008FE
:10197000A5900008E5910008E3910008F89100089F
:10198000AC900008BC90000868030020F40500201B
:1019900064030020080000205D0300205A0300209B
:1019A0005C030020590300205803002000000020A1
:1019B000C6900008309100086C0300203D9100089B
:1019C0008D9100089B9100082DE9F04F0027A04C55
:1019D000DFF8BCA29F4E8DB0B94601234FF0030241
:1019E00006219B4823706270E370637184F8029053
:1019F00084F80490FFF786FA974DA071000AE07111
:101A0000FFF7B0FA924964230822504601F065FFBF
:101A1000FFF792FA642307222946504601F0ABFFF4
:101A2000F0B905212846FFF76DFAB5F80580404565
:101A300016D12B78012B13D16B78032B10D1AB78F7
:101A4000022B0DD1B5F803305BBA9BB207EE903A8A
:101A5000F8EEE77AF2EE046A87EEA67A8DED017A67
:101A60000A2002F064F84FF003020123062162709D
:101A7000204602222370E270637184F8029084F899
:101A80000490FFF73FFAA071000AE071FFF76AFACD
:101A9000642308222146504601F01FFFFFF74CFA4D
:101AA0006D4964230722504601F065FFF0B96A488A
:101AB000B5F805800521FFF725FA804516D12B786A
:101AC000012B13D16B78032B10D1AB78022B0DD1E6
:101AD000B5F803305BBA9BB207EE903AF8EEE77ABE
:101AE000F2EE046A87EEA67A8DED027ADFF8A4B1F1
:101AF0005A48DFF8A481002207A901F06BFC0022FC
:101B00006946564801F089FC01AD6FF00043DBF8EF
:101B1000000003934FF0FF3102F04DF895E8070005
:101B200088E80700DBF8000002F068F84C48002362
:101B30001A462946006802F0BBF801F0ADFF494B98
:101B4000C21B9A42834624D395E80700464B474D73
:101B500004AF87E8070018684FF0FF3102F02BF858
:101B600029464FF40D7205F10C0004F0DEFF97E8F2
:101B7000070085E807003E493B4B0A7830200132D8
:101B8000B2FBF0F500FB152218680A7002F036F877
:101B90005F46384B384D1A78003A18BF0122802131
:101BA000304600F04DFF2B78002B4BD1D8ED007A5A
:101BB000BAEE047AF4EEC77AF1EE10FA42D49FED51
:101BC0002F7AF4EEC77AF1EE10FA3BDCD8ED017A09
:101BD000F5EEC07AF1EE10FA34D49FED297AF4EEE6
:101BE000C77AF1EE10FACCBF4FF001084FF00008B1
:101BF00042462021304600F023FFB8F1000F24D1E7
:101C0000204B1A78003A18BF01223046402100F0DC
:101C100017FF4FF48051304600F00CFF4FF4005195
:101C20002870304600F006FF174B4FF480411870C3
:101C3000304600F0FFFE154B187041F2883001F07D
:101C400076FFCAE64FF00108D2E70022DDE700BFC9
:101C500010020020000402401803002004070020A6
:101C60007403002040771B0060030020B4030020B1
:101C7000B00300205B0300205A03002000007042E4
:101C80000000C8425D0300205903002058030020D3
:101C9000BC06002068030020F405002010B50024D5
:101CA00094B02146142203A8CDE90B4404F057FF59
:101CB000214B01941A6C42F080521A641B6C03F0A1
:101CC00080530193019B1D4B02941A6842F4804299
:101CD0001A601B6803F480430293029B0D214FF4AA
:101CE0008033CDE90813012302240A930D934FF4A6
:101CF00080030820CDE90E434FF4A873CDE910030B
:101D0000042308A81294139300F0CEFE08B172B613
:101D1000FEE70F23CDE9033405904FF4A0524FF4B2
:101D20008053052103A8CDE9062301F099F808B1F5
:101D300072B6FEE714B010BD0038024000700040DB
:101D400080B592B00024704D00F0CCFBFFF7A6FFE9
:101D5000142200210DA804F002FF01942B6B6B48A4
:101D600043F004032B632B6B03F004030193019BEB
:101D700002942B6B43F080032B632B6B03F08003E7
:101D80000293029B03942B6B43F001032B632B6B99
:101D900003F001030393039B04942B6B43F00203B2
:101DA0002B632B6B03F00203049322464FF4C351C1
:101DB000049B00F045FE564801224FF4407100F0AC
:101DC0003FFE22465348E02100F03AFE01264FF440
:101DD000C3534E480DA9CDE90D36CDE90F4400F0AF
:101DE00051FD4FF4E0434B480F940DA9CDE90D345C
:101DF00000F048FD4FF4407345480DA9CDE90D367C
:101E0000CDE90F4400F03EFDE02342480DA9CDE9A5
:101E10000D36CDE90F4400F035FD00942B6B43F4F3
:101E200080032B632B6B3C4D03F48003224605217A
:101E300000934520009B00F093FB452000F0C2FB7F
:101E400036484FF416530C27C0E90053C0E902444A
:101E5000C0E905740461C46101F010FD034608B1D6
:101E600072B6FEE72E482F4C4FF4E132C0E9004233
:101E7000C0E90233C0E90437C0E9063301F0FEFCD3
:101E800008B172B6FEE7DFF8B08027490323C8E93E
:101E90000013404640F6FF73C8F8083000F0D5FD47
:101EA000054608B172B6FEE7142201460DA804F0FB
:101EB00056FE1E4C1E4B0995C4E900357F22FF23B8
:101EC0002046C4E90223C4E90455A56101F085F95F
:101ED00008B172B6FEE7CDE91000ADF834008DF818
:101EE000360032460DA9204601F0CAF908B172B693
:101EF000FEE7104B09932046324609A901F01AFA71
:101F00000446E8B172B6FEE7003802400000024025
:101F1000000802400004024000100140BC060020FE
:101F20007406002000140140003000400407002027
:101F3000002800400101010024070020CDCC4C3DC9
:101F40005FED020A4E48B7EE001AB0EE000A00F04C
:101F5000E3F89FED4C1ADFED4C0A4C48B7EE080A47
:101F600000F0DAF89FED4A0A4548F7EE000A00F063
:101F7000E1F89FED470A4548F7EE000A00F0DAF86D
:101F80004FF410722146434804F0E9FD42483246BE
:101F90004FF4007100F054FD3F4832464FF4807119
:101FA00000F04EFD3D482246202100F049FD22462A
:101FB00040213A4800F044FDFEF7BEFF01F040FD2D
:101FC000374B05A8CDE90536CDE9074401F0BBFD47
:101FD000344B1860344B09A8CDE90936CDE90B44E0
:101FE00001F0B1FD314B1860314B0DA8CDE90D3634
:101FF000CDE90F4401F0A7FD2E4B2246186039466B
:102000000A2001F01AFE2C4B2246186039460A209D
:1020100001F013FE294B224618604021142001F0E4
:102020000CFE274B274A18602146274801F03BFD4C
:10203000264B274A18602146264801F034FD264BDE
:10204000264A18602146264801F02DFD254B264AD8
:1020500018602146254801F026FD254B254A1860C9
:102060002146254801F01FFD244B186001F0FAFCC1
:10207000404600F013FD642001F059FDF8E700BF71
:1020800094030020CDCC4C3F8FC2F53C7803002058
:1020900000000000B40300200008024000000240DD
:1020A00009920008680300201992000864030020C8
:1020B00027920008600300207403002070030020B2
:1020C0006C03002044DC0008C91900081006002039
:1020D00020DC0008910F00080C060020FCDB000843
:1020E0003510000808060020D8DB0008E9120008B7
:1020F00004060020B4DB0008411700080006002099
:102100000268034B9A4201D100F006BA704700BF43
:102110000000014072B6FEE70023C3600361436123
:102120004FF07E5380ED000AC0ED010A80ED021AE7
:102130008361704780ED050AC0ED060A704770EEB6
:10214000C00AD0ED037A90ED017A90ED006AD0EDEF
:10215000026A90ED060A70EEA77AC0ED037A67EE88
:10216000877A90ED047AC0ED040AE6EE207A30EE2C
:10217000C77AE6EE877AB4EEE70AF1EE10FA08D4F1
:1021800090ED050AB4EEE70AF1EE10FAD8BFB0EE12
:10219000670A704782B00E4B00220092596C41F4DE
:1021A00080415964596C01F4804100910099019279
:1021B000196C41F0805119641B6C03F0805301933A
:1021C000019B0F216FF0010002B000F0C9B900BF00
:1021D000003802401FB5044610220021684604F072
:1021E000BEFC2268094B9A420ED102230093684636
:1021F0004FF48073039300F00BFF08B1FFF78AFFE1
:10220000034B0122C3F83C2E04B010BD002800404F
:102210000000474270B514228AB0064600210DEB3B
:10222000020004F09CFC3368334A934224D1334BC0
:102230003348002101915A6C42F010025A645A6CE2
:1022400002F010020192019A02911A6B42F001020F
:102250001A631B6B03F001030293029B4FF4C064EB
:102260000223CDE905430325072305A9CDE908533A
:1022700000F008FB0AB070BD224A9342FAD11F4B0E
:102280002148224C002503955A6C42F020025A64E2
:102290005A6C02F020020392039A04951A6B42F0E2
:1022A00004021A631B6B03F004030493049BC02213
:1022B0000223CDE9052303210823CDE9081305A94D
:1022C00000F0E0FA12484FF02063C4E90003402315
:1022D000C4E9023520464FF48063C4E90435C4E9FB
:1022E0000655C4E9085500F091F908B1FFF712FF4F
:1022F000B463A663BEE700BF00100140003802408F
:1023000000000240001401400008024014060020B2
:10231000A064024070B588B000241E4B02945A6C31
:102320001D4D42F001025A645B6C03F0010301A9E8
:102330000293064603A8029B00F04CFE00F03AFE12
:10234000164B2B6040F2E733154AEB6043002846FA
:10235000B3FBF2F3013B2C61AC60AC616B6001F04C
:10236000A1F9044680B9284601F076F8044658B928
:10237000192000F027F90F2E09D8224631461920DE
:1023800000F0EEF8074B1E60204608B070BD012437
:10239000FAE700BF0038024030070020000001408B
:1023A00040420F001C000020FEE7FEE7FEE7FEE7CC
:1023B000FEE77047014801F08DB800BF30070020EC
:1023C000014800F0A1B900BF1406002001207047A9
:1023D00008B504F005FD162303604FF0FF3008BD7B
:1023E00008B504F0FDFC16230360FEE770B50D464A
:1023F00014460E46731B9C4201DC204670BDAFF3B1
:10240000008006F8010BF5E770B50D4614460E4640
:10241000731B9C4201DC204670BD16F8010BAFF324
:102420000080F5E74FF0FF3070474FF400534B60EA
:102430000020704701207047002070470B4A116848
:1024400010B5034609B90A491160106809490A4CD8
:102450000344091B8B4206D904F0C2FC0C23036021
:102460004FF0FF3010BD1360FCE700BF780700207D
:10247000B05200200000022000040000034AD2F8FD
:10248000883043F47003C2F88830704700ED00E0F4
:10249000DFF834D0FFF7F2FF0C480D490D4A002356
:1024A00002E0D458C4500433C4188C42F9D30A4A09
:1024B0000A4C002301E013600432A242FBD304F073
:1024C00095FCFFF73DFC7047000002200000002053
:1024D000EC010020E8DE0008EC010020B0520020F2
:1024E000FEE7000008B50B4B1A6842F400721A6050
:1024F0001A6842F480621A601A6842F480721A60A4
:10250000032000F01BF80F20FFF704FFFFF742FE47
:10251000002008BD003C0240034A044B11681B78B0
:102520000B441360704700BF7C0700201800002098
:10253000014B1868704700BF7C0700200749CA6834
:1025400022F4E0620302120403F4E063120C13436A
:1025500043F0BF6343F40033CB60704700ED00E00D
:10256000164B30B5DC68C4F30224C4F10703251D03
:10257000042B28BF0423062D4FF0FF358CBF033CEE
:10258000002405FA03F321EA0303A54022EA050229
:10259000A340002843EA0203ACBF00F16040084AB0
:1025A0004FEA0313B8BF00F00F00DBB2AABF00F57B
:1025B0006140135480F8003330BD00BF00ED00E0EF
:1025C00014ED00E0002807DB044A4109012300F074
:1025D0001F00834042F82130704700BF00E100E057
:1025E000036810B5084C0246D9B210391820B1FB67
:1025F000F0F0205CD06523F47F7020F003005F29A9
:1026000088BF0430906510BD80DC000870B50446BA
:10261000FFF78EFF0546002C60D0022384F835308A
:102620002268002384F83430136823F00103136018
:1026300022681368D8072ED413683248A16918405D
:10264000D4E901352B43E5682B4325692B436569A4
:102650002B43E5690B432B43256A2B430343606AF5
:10266000042802BFD4E90B5635432B43136053694A
:10267000042823F0070343EA000335D1A06AE56A82
:1026800003438DB391B9012820D030F002012BD142
:10269000E90129D51DE0FFF74BFF401B0528C7D9ED
:1026A00020230320636584F8350070BDB1F5005F19
:1026B00016D1032818D801A151F820F0D32600081C
:1026C00091260008D3260008CD260008B5F1C07F6A
:1026D0000AD140236365012384F835300120E4E703
:1026E0000228F6D90328D3D053612046FFF778FF9C
:1026F000E26D3F239340836000200123606584F8EE
:102700003530D2E73F8010F0F7B5002301935C4BE2
:10271000856D1F68C36D2E6808229A4032420446B8
:102720000CD001680868400708D5086820F004004C
:102730000860AA60626D42F00102626501229A405F
:10274000324208D021684969090641BFAA60626D1A
:1027500042F00202626504229A40324208D02168A7
:102760000968880741BFAA60626D42F00402626591
:1027700010229A40324210D02368196809070CD5FC
:10278000AA601A68500337D51B68190301D4236C5B
:1027900000E0A36C0BB120469847E16D20228A40EF
:1027A00032423AD023681868C60636D5AA6094F833
:1027B0003520052A1A6827D122F016021A605A69B4
:1027C00022F080025A61226C0AB9A26C1AB11A680E
:1027D00022F008021A603F238B40AB60012384F88B
:1027E0003530002384F83430236D002B45D020464B
:1027F00003B0BDE8F04018471A68D2055EBF1A68FA
:1028000022F008021A60C2E7500327D51B6819039B
:1028100031D4636C0BB120469847636D6BB3636D25
:10282000DA0719D522684FF41653B7FBF3F70523DF
:1028300084F83530136823F001031360019B0133E2
:10284000BB42019302D81368DB07F7D4012384F855
:102850003530002384F83430E36CC6E71A6812F48C
:10286000807208D1196821F010011960012384F8E1
:10287000353084F83420E36BCCE703B0F0BD00BF03
:10288000140000202DE9F74FDFF8A491664A0023D9
:102890000D6801249C4004EA0506AC4340F0AF807B
:1028A0004D68032705F003044FEA430807FA08FCC4
:1028B000671E012F6FEA0C0C34D8876807EA0C0EEC
:1028C000CF6807FA08F747EA0E078760476827EAE4
:1028D000060EC5F300179F4047EA0E074760C7681A
:1028E00007EA0C0E8F6807FA08F747EA0E07022C72
:1028F000C76019D14FEAD30A00EB8A0A03F0070B2D
:10290000DAF820704FEA8B0B4FF00F0E0EFA0BFE29
:1029100027EA0E0E0F6907FA0BF747EA0E07CAF807
:10292000207001E0032CDAD1076804FA08F407EA02
:102930000C073C4315F4403F046060D00024019430
:10294000D9F8444044F48044C9F84440D9F844409C
:1029500023F0030707F1804704F4804407F59C3710
:10296000019403F0030C019CD7F808E04FEA8C0CAB
:102970000F2404FA0CF42EEA040E2C4CA04245D08D
:1029800004F58064A04243D004F58064A04241D0A5
:1029900004F58064A0423FD004F58064A0423DD09D
:1029A00004F58064A0423BD004F58064A04239D095
:1029B00004F58064A04214BF0824072404FA0CF430
:1029C00044EA0E04BC609468F74315F4801F0CBF02
:1029D0003C4034439460D46815F4001F0CBF3C4065
:1029E0003443D460546815F4003F0CBF3C4034437A
:1029F00054601468ED0354BF3C4034431460013309
:102A0000102B7FF445AF03B0BDE8F08F0024D5E76D
:102A10000124D3E70224D1E70324CFE70424CDE740
:102A20000524CBE70624C9E7003C01400000024032
:102A3000003802400369194214BF0120002070478A
:102A40000AB1816170470904FBE770B5044618B309
:102A500003684CF6CC421A6045F255521A6042683F
:102A60005A6082689A60FFF763FD41F601060546E9
:102A70002268D06810F0030003D14AF6AA2313603D
:102A800070BDFFF755FD401BB042F1D92368DB68EC
:102A90009B07EDD00320F3E70120F1E703684AF636
:102AA000AA221A60002070472DE9F341044640B382
:102AB0000368DE0710D423689D075BD423681907D9
:102AC00000F19D8023685A0700F1BD80A369002BA7
:102AD00040F0248100202CE08D4B9A6802F00C021B
:102AE000042A07D09A6802F00C02082A0BD15B680E
:102AF000590208D5864B1B689A03DCD56368002B06
:102B0000D9D1012015E06368814DB3F5803F13D121
:102B10002B6843F480332B60FFF70AFD7C4E05469B
:102B200033689B03C7D4FFF703FD401B6428F7D924
:102B3000032002B0BDE8F081B3F5A02F04D12B68CB
:102B400043F480232B60E3E72A6822F480322A6072
:102B50002A6822F480222A60002BDDD1FFF7E8FCEE
:102B600006462B689F03A6D5FFF7E2FC801B64286E
:102B7000F7D9DDE7664B9A6812F00C0F07D09A6818
:102B800002F00C02082A11D15B685D020ED4604A83
:102B90001368990702D5E368012BB2D11368216944
:102BA00023F0F80343EAC103136087E7E268594B57
:102BB000B2B101221A60FFF7BBFC554D06462B68E7
:102BC0009B0707D52B68226923F0F80343EAC20369
:102BD0002B6073E7FFF7ACFC801B0228EFD9A7E757
:102BE0001A60FFF7A5FC4A4E054633689F077FF53C
:102BF00065AFFFF79DFC401B0228F6D998E7626994
:102C0000444B82B10122C3F8802EFFF791FC404E65
:102C10000546736F9B073FF555AFFFF789FC401BD7
:102C20000228F6D984E7C3F8802EFFF781FC384EDE
:102C30000546736F9F077FF545AFFFF779FC401B93
:102C40000228F6D974E7324B1A6C12F0805228D160
:102C500001921A6C42F080521A641B6C03F080538C
:102C60000193019B01272C4D2B68D8051BD5A36828
:102C7000274D012B27D12B6F43F001032B67FFF763
:102C800057FC234E054641F28838336F9A0739D5F1
:102C9000002F3FF41BAF1E4A136C23F080531364C4
:102CA00014E70027DFE72B6843F480732B60FFF7FE
:102CB0003FFC06462B68D905D9D4FFF739FC801BA9
:102CC0000228F7D934E7052B04D12B6F43F0040316
:102CD0002B67D0E72A6F22F001022A672A6F22F0C1
:102CE00004022A67002BCAD1FFF722FC41F2883880
:102CF00006462B6F9B07CBD5FFF71AFC801B404580
:102D0000F7D915E7FFF714FC401B4045BDD90FE785
:102D1000003802400000474200700040374DAA686A
:102D200002F00C02082A3ED0022B354B4FF0000275
:102D30001A662BD1FFF7FCFB06462B6899011FD4BE
:102D4000D4E907321343626A43EA8213E26A43EA30
:102D50000263A26A5208013A43EA02436B60284BBD
:102D6000264D01221A66FFF7E3FB04462B689A0101
:102D70003FF5B0AEFFF7DCFB001B0228F6D9D7E623
:102D8000FFF7D6FB801B0228D7D9D1E6FFF7D0FB8F
:102D900004462B689B017FF59DAEFFF7C9FB001B26
:102DA0000228F6D9C4E6012B3FF4ABAE6B68E269AA
:102DB00003F4800191427FF4A4AE216A03F03F0244
:102DC0008A427FF49EAE616A47F6C0721A40B2EB47
:102DD000811F7FF496AEA26A520803F44031013A93
:102DE000B1EB024F7FF48DAEE26A03F07063B3EB98
:102DF000026F14BF012000209BE600BF0038024094
:102E000000004742134908B58B6803F00C03042BFC
:102E10001CD0082B1CD14A684B68496813F4800306
:102E200014BF0D480D48C1F3881118BF002302F0EC
:102E30003F02A1FB0001FDF799FE064B5B68C3F35F
:102E4000014301335B00B0FBF3F008BD0248FCE72F
:102E50000248FAE70038024000127A000024F40029
:102E60002DE9F0410D46044610B90120BDE8F0817E
:102E7000434B1A6802F007028A4228D321688F0761
:102E80002DD4C80740D43E4B1A6802F00702AA426C
:102E900065D8226851076BD4130707D5394A2169D1
:102EA000936823F4604343EAC1039360FFF7AAFFEA
:102EB000344B354A9B68C3F30313D35CD840334B80
:102EC0001860334B1868FFF725FA0020CEE7CAB226
:102ED0001A701B6803F007038B42C6D1CEE7294B5B
:102EE00011F0040F1EBF9A6842F4E0529A600E0778
:102EF00042BF9A6842F460429A609A68A06822F0E1
:102F0000F00202439A60BCE762681E4B012A1CD1A2
:102F10001B6813F4003FA8D01A4EB36823F00303D4
:102F20001343B360FFF704FB41F288380746B368E8
:102F3000626803F00C03B3EB820FA4D0FFF7F8FA3A
:102F4000C01B4045F3D9032090E7911E01291B685F
:102F500002D813F0007FDEE713F0020FDBE7EAB2DE
:102F60001A701B6803F00703AB427FF47EAF90E753
:102F70000449E0688B6823F4E05303438B608BE7DC
:102F8000003C02400038024070DC000814000020C1
:102F90001C000020044B054A9B68C3F38223D35CCA
:102FA000034A1068D84070470038024068DC0008C7
:102FB00014000020044B054A9B68C3F34233D35CE2
:102FC000034A1068D84070470038024068DC0008A7
:102FD000140000200F2303600B4B9A6802F00302D9
:102FE00042609A6802F0F00282609A6802F4E0524D
:102FF000C2609B68DB0803F4E0530361034B1B686A
:1030000003F007030B60704700380240003C0240A9
:10301000036813F0050FF7B5044605D123689B0735
:103020002AD4002003B0F0BD424B434E00229A66E2
:10303000FFF77EFA054633681F0116D4D4E9012351
:103040001B0743EA8213C6F884303A4B3A4E0122FA
:103050009A66FFF76DFA054633681801DED4FFF76C
:1030600067FA401B0228F7D904E0FFF761FA401B1A
:103070000228E0D90320D5E7002301932E4B2F4DE2
:103080001A6C42F080521A641B6C03F08053019357
:10309000019B2B6843F480732B60FFF749FA0646C7
:1030A0002B68D9051BD5244DE2682B6F13F44073B0
:1030B0001BD1E36803F44072B2F5407F1E4A34D15D
:1030C000916823F0704021F4F81120F4407001431E
:1030D0009160116FC3F30B030B431367A1E7FFF775
:1030E00027FA801B0228DBD9C4E702F4407293421E
:1030F000DFD02B6F0F4A0121C2F8401E23F440732A
:103100000021C2F8401E2B672B6FDA07D1D5FFF7DD
:103110000FFA41F2883706462B6F9B07C9D4FFF799
:1031200007FA801BB842F7D9A4E7916821F4F81197
:10313000CEE700BF00004742003802400070004068
:1031400038B50368094ADA600446FFF7F1F9054625
:103150002368DB689B0601D5002038BDFFF7E8F93E
:10316000401BB0F57A7FF3D90320F6E75F7F0100BB
:10317000036870B5DC6814F04004054617D1DA68BE
:1031800042F08002DA60FFF7D3F906462B68DB686D
:103190005B0600D40CB1204670BDFFF7C9F9801B57
:1031A000B0F57A7F82BF04236B770124EEE7002419
:1031B000F1E70368DA6822F0800210B5DA609B68F4
:1031C0009B06044601D5002010BDFFF7B9FF00287B
:1031D000F9D0042363770120F6E710B504460028F0
:1031E00041D0437F03F0FF0213B90277FEF7F2FFED
:1031F000022363772368DA68D20603D50123637755
:10320000002010BDCA225A6253225A622046FFF79C
:10321000AFFF10BB236820699A6822F4E00222F015
:1032200040029A60626899680243606902430A43F7
:103230009A60E2681A611A69A16842EA01421A6159
:103240002046FFF7B6FF40B92368A1691A6C22F443
:1032500080221A641A6C0A431A642368FF225A6295
:103260000028CBD0CDE70120CBE70023092803D8E5
:1032700040EA0310C0B270470A380133C0B2F5E724
:103280002DE9F041037F012B06460F464FF0020067
:1032900041D0012331683377707738787D78BC78F6
:1032A0008B68002A39D113F0400308BFFB70FFF789
:1032B000DCFF80462846FFF7D8FF02462046FFF78E
:1032C000D4FFFB7840EA835343EA084343EA0224ED
:1032D000CA234B6253234B623046FFF749FFA8B91C
:1032E000326804F07F3424F0FE441460936823F4C1
:1032F00080239360D7E90330916803430B439360C5
:103300003046FFF756FF08B9012373773368FF2271
:103310005A6200233377BDE8F08113F0400308BF01
:10332000FB702D02FA7845EA004545EA040343EABA
:103330008254CDE7F8B5037F012B05464FF002001C
:1033400027D001232B7768770E78C8784C788F7850
:103350007603FAB146EA00433B4343EA04242B6870
:10336000CA225A6253225A622846FFF701FF58B90F
:103370002A6824F07F4424F0C00454602846FFF7F4
:1033800018FF08B901236B772B68FF225A620023CC
:103390002B77F8BDE30642BF24F010040A344C70CA
:1033A000FFF763FF04464878FFF75FFF02463846A1
:1033B000FFF75BFF40EA060343EA044343EA0224C3
:1033C000CDE7030903EB830300F00F0000EB43009C
:1033D000C0B2704738B50368986A486018691B68BE
:1033E000C0F30E00C3F3062503F07F048860C3F327
:1033F0000540C3F3805308704D708C70CB7052B988
:10340000FFF7DFFF08702846FFF7DBFF4870204614
:10341000FFF7D7FF8870002038BD38B503685B68B8
:10342000C3F30740C3F3042503F03F04C3F342335F
:10343000C8704D708C700B7052B9FFF7C2FFC87026
:103440002846FFF7BEFF48702046FFF7BAFF887096
:10345000002038BD7047000090F83D30012B30D17E
:10346000022380F83D300368DA6842F00102DA6036
:10347000154A93421AD0B3F1804F17D0A2F57C427F
:10348000934213D002F5806293420FD002F580621E
:1034900093420BD002F57842934207D002F5705266
:1034A000934203D0A2F59432934204D19A6802F079
:1034B0000702062A03D01A6842F001021A600020AF
:1034C00070470120704700BF0000014070477047FF
:1034D00070477047036870B5DD681E69B107044620
:1034E0000DD5AA070BD56FF002021A6101220277EF
:1034F0009B699B0769D0FFF7EAFF002323777107D9
:1035000010D56A070ED523686FF004021A610222F3
:1035100022779B6913F4407F20465CD0FFF7D7FFEA
:103520000023237733070FD528070DD523686FF0C5
:1035300008021A6104222277DB699907204650D0DD
:10354000FFF7C5FF00232377F20610D5EB060ED553
:1035500023686FF010021A6108222277DB6913F4E6
:10356000407F204643D0FFF7B2FF00232377F007C8
:1035700008D5E90706D523686FF001021A612046D5
:10358000FEF7BEFD320608D52B0606D523686FF080
:1035900080021A61204600F0B2F8700608D569066C
:1035A00006D523686FF040021A612046FFF791FFAD
:1035B000B20622D5AB0620D523686FF02002204644
:1035C0001A61BDE8704000F099B8FFF77FFF204610
:1035D000FFF77EFF91E7FFF779FF2046FFF778FFBF
:1035E0009EE7FFF773FF2046FFF772FFAAE7FFF79A
:1035F0006DFF2046FFF76CFFB7E770BD274A0368F1
:10360000904212D0B0F1804F0FD0A2F57C42904290
:103610000BD002F58062904207D002F580629042A2
:1036200003D002F57842904208D14A6823F0700333
:103630001343CA6823F44073134316E0184A9042B8
:10364000F7D002F580629042F3D002F5806290429A
:10365000EFD0A2F598329042EBD002F58062904212
:10366000E7D002F580629042E3D04A6923F08003FC
:1036700013438A68C2620A688262084A904203D091
:1036800002F58062904201D10A690263026842F049
:1036900004020260012242610360704700000140A1
:1036A0000040014010B5044630B390F83D3003F0BF
:1036B000FF021BB980F83C20FFF7CCFE02232068F4
:1036C00084F83D30211DFFF799FF012384F846302F
:1036D000002084F83E3084F83F3084F8403084F88D
:1036E000413084F8423084F8433084F8443084F820
:1036F000453084F83D3010BD0120FCE7704770472D
:10370000026802F10C0353E8003F23F490730C327B
:1037100042E8003102680029F2D102F1140353E8B3
:10372000003F23F0010302F1140C4CE800310029A2
:10373000F3D1036B012B0BD102F10C0353E8003FD3
:1037400023F0100302F10C0C4CE800310029F3D1F6
:10375000202380F842300023036370470268C16869
:1037600038B5136923F440530B431361054683684E
:103770000069D168034368690343E86921F416418D
:1037800021F00C0103430B43D3605369A96923F46F
:1037900040730B4353611F4B9A4203D003F5806380
:1037A0009A4224D1FFF706FCEA691921B2F5004FCD
:1037B000D5E90043A0FB01011CD1DA184FF0000548
:1037C00045EB0503FDF7D2F96422B0FBF2F102FBF1
:1037D0001103DB003233B3FBF2F303F007025B00AB
:1037E00002EB011203F4F8731344A36038BDFFF732
:1037F000D1FBD9E79A009B0FFDF7B8F96422B0FB23
:10380000F2F102FB11031B013233B3FBF2F303EBC2
:103810000113EAE700100140F7B505460C461746CC
:103820001E462A68136834EA030301D1002021E010
:10383000701CF7D0FEF77CFEC01B86421CD3DEB1A5
:103840002B68DA685107ECD5802CEAD0402CE8D000
:103850001A681207E5D5002401941A6801925B6882
:1038600001932846019BFFF74BFF08236B6485F803
:103870004040012003B0F0BD0320FBE710B5044633
:1038800048B390F8413003F0FF021BB980F84020A4
:10389000FEF7C0FC2268242384F84130D36823F467
:1038A0000053D3602046FFF759FF23681A6922F4BA
:1038B00090421A615A6922F02A025A61DA6842F487
:1038C0000052DA6000202023606484F8413084F8DC
:1038D0004230606310BD0120FCE72DE9F8439846B3
:1038E00090F84130202B04460E4617463FD1002960
:1038F0003FD0002A3DD021230025456480F8413087
:10390000FEF716FEA368A784B3F5805F8146E784BF
:1039100003D123690BB935461E46E38C9BB253B9DC
:1039200043464A4640212046FFF776FF202350B900
:1039300084F841300AE043464A4680212046FFF79A
:103940006BFF28B1202384F841300320BDE8F883C1
:1039500022684EB935F8023BC3F308035360E18C8B
:10396000013989B2E184D8E716F8013BF6E7022075
:10397000ECE70120EAE72DE9F8431F4690F84230D2
:10398000202B04460E46914648D1002948D0002AF3
:1039900046D022230025456480F842300563FEF7B7
:1039A000C7FDA368A4F82C90B3F5805F8046A4F807
:1039B0002E9003D123690BB935461E46E08D80B2A7
:1039C00018B9202384F842300AE03B4642462021C1
:1039D0002046FFF721FF28B1202384F8423003203E
:1039E000BDE8F88323684EB95B68C3F3080325F884
:1039F000023BE38D013B9BB2E385DFE7A268B2F5B2
:103A0000805F02D032B9226922B95968C9B206F87A
:103A1000011BEEE7596801F07F01F8E70220DFE7BC
:103A20000120DDE708B54FF0E0231B6901F012FB30
:103A3000012803D0BDE8084001F0ACBE08BD00007D
:103A4000EFF305832BB9064B186828B901221A60D9
:103A500070476FF0050070474FF0FF30704700BFB0
:103A6000D00E002010B5EFF305845CB9084B1A683E
:103A7000012A0AD1074AD47702221A6001F04AF8D3
:103A8000204610BD6FF00500FBE74FF0FF30F8E770
:103A9000D00E002000ED00E0EFF305830BB101F044
:103AA00097B801F08FB8F0B587B0144600220B46E6
:103AB0000592EFF30582FAB9F0B154B3A56925B1C7
:103AC000691E372902D9002017E018256268D2073D
:103AD000F9D466699EB1B208D4E9027C216887B145
:103AE000BCF1A70F08D9246934B12EB1CDE9014743
:103AF000009500F0A9FF0590059807B0F0BD802261
:103B0000EAE7BCF1000FF7D12469002CF4D10C4690
:103B100001E01825802205A9CDE9005192B2214685
:103B200000F0CAFF01281CBF00230593E4E708B595
:103B3000EFF3058222B908B101F05CF9002008BD5D
:103B40006FF00500FBE7F8B50546EFF3058717B101
:103B500000242046F8BD20B346683307F8D4D0E9E6
:103B6000021306F0010699B14F2BF1D9BEB1042022
:103B700000F048FB04460028EAD02D683746294665
:103B8000204600F0B7FD002FE3D044F00104E0E749
:103B9000002BDDD12EB1042000F068FBEAE7012004
:103BA000E6E7012000F062FB04460028D0D0002D9B
:103BB000E5D00026E1E738B503460C4620F00100C9
:103BC00003F00102EFF3058595B9012B13D962B11A
:103BD00000F021FD012801D1002038BD002C14BFC8
:103BE0006FF001006FF00200F7E700F057FCF1E71B
:103BF0006FF00500F1E76FF00300EEE7024608B54D
:103C000020F0010002F00103EFF3058179B9012AE8
:103C100010D93BB100F00BFB01280CBF00206FF066
:103C2000020008BD1A46194600F03AFAF4E76FF0B0
:103C30000500F6E76FF00300F3E7F7B505460E461B
:103C40001446EFF305871FB10025284603B0F0BDE9
:103C50000028F9D00029F7D0DAB1D2E9023283B1D5
:103C60004F2AF1D92269002AEED066694D43AE424F
:103C7000EAD3009700F09FF905460028E4D02468B5
:103C800011E0002AE0D12369002BDDD16369002B0C
:103C9000DAD128460022314600F0DBF9054600283B
:103CA000D2D0002CEBD12146284600F023FDCCE7F2
:103CB00073B51C46EFF30586DEB138B331B32BBBC9
:103CC00001AA019300F0EFFA012803D06FF002007F
:103CD00002B070BD019B0BB90020F9E74FF0E02363
:103CE0004FF08052C3F8042DBFF34F8FBFF36F8F97
:103CF000F2E758B151B13346224600F0D1F901281C
:103D0000EAD0002CE2D06FF00100E1E76FF0030091
:103D1000DEE737B51C46EFF30583DBB130B329B3DB
:103D200024BB01AA019400F097FC012803D06FF096
:103D3000020003B030BD019B0BB90020F9E74FF042
:103D4000E0234FF08052C3F8042DBFF34F8FBFF331
:103D50006F8FF2E750B149B1224600F001FB012814
:103D6000EBD0002CE3D06FF00100E2E76FF003002E
:103D7000DFE70000034B0360034B0B6080231360FD
:103D8000704700BF280E0020280C0020034B036062
:103D9000034B0B604FF4807313607047800B00205F
:103DA0008007002000F108034FF0FF32C0E9022332
:103DB0004360036100230360704700230361704781
:103DC00043684B609A688A60516099600368086133
:103DD00001330360704730B50C68631C0AD1036976
:103DE0005A684A6091608B605960036808610133CA
:103DF000036030BD00F10802134652681568A54201
:103E0000FAD9EDE7D0E9011203698A605160596877
:103E1000814208BF5A60002202611A68013A1A60A2
:103E20001868704710B5044601F04CFCA46B01F013
:103E300069FCB4FA84F0400910BD70B51646026CF6
:103E4000856B044642B906689EB9806801F050F956
:103E5000A6600135A56370BD6EB9406802F0F5FF3C
:103E60006368226C1344A2686360934224BF236892
:103E700063600020EDE7C06802F0E7FF226CE368B2
:103E800051429B1A2268E36093423EBFA3685B18CD
:103E9000E360022EEDD10DB1013DEAE72846D8E7F7
:103EA000034610B41A6C08466AB1DC689968144479
:103EB0008C4228BF1968DC6028BFD960D9685DF8DA
:103EC000044B02F0C2BF5DF8044B704770B5044666
:103ED00001F0F8FB94F8455004F124066DB2002D72
:103EE00001DD636AB3B9FF2384F8453001F00AFCB1
:103EF00001F0E8FB94F8445004F110066DB2002D77
:103F000001DD23697BB9FF2384F84430BDE87040AC
:103F100001F0F8BB304601F009F808B101F08EF865
:103F2000013D6DB2DBE7304601F000F808B101F069
:103F300085F8013D6DB2E2E738B50D46044640B95B
:103F40004FF0500383F31188BFF36F8FBFF34F8F90
:103F5000FEE701F0B7FBD4E90F31226862604B4302
:103F6000D0185B1A1A44A060FF230020A063E2600F
:103F700084F8443084F84530A5B9236973B104F15D
:103F8000100000F0D3FF48B14FF0E0234FF0805213
:103F9000C3F8042DBFF34F8FBFF36F8F01F0B2FB57
:103FA000012038BD04F11000FFF7FCFE04F12400ED
:103FB000FFF7F8FEF2E737B50D461C4640B94FF063
:103FC000500383F31188BFF36F8FBFF34F8FFEE76A
:103FD00043B94FF0500383F31188BFF36F8FBFF3E2
:103FE0004F8FFEE74AB191B94FF0500383F3118828
:103FF000BFF36F8FBFF34F8FFEE741B14FF0500318
:1040000083F31188BFF36F8FBFF34F8FFEE7502309
:104010000193019B502B08D04FF0500383F311887C
:10402000BFF36F8FBFF34F8FFEE70121002D08BF55
:104030002246C4E90F0584F8461022602046019B01
:10404000FFF77AFF9DF8183084F84C30204603B013
:1040500030BDF8B50D461746064640B94FF050033F
:1040600083F31188BFF36F8FBFF34F8FFEE7484391
:10407000503001F08DFC044670B1002380F84630CA
:1040800065B100F15003C4E90F65236001212046AA
:10409000FFF752FF84F84C702046F8BD0346F2E764
:1040A0002DE9FF410F4601921E46044640B94FF0EC
:1040B000500383F31188BFF36F8FBFF34F8FFEE779
:1040C00051B9036C43B14FF0500383F31188BFF330
:1040D0006F8FBFF34F8FFEE7022E0BD1E36B012BE7
:1040E00008D04FF0500383F31188BFF36F8FBFF3F5
:1040F0004F8FFEE700F0AEFF054620B300254FF0DE
:10410000000801F0DFFAA26BE36B9A4227D2324635
:1041100039462046FFF791FE636A1BB104F1240083
:1041200000F004FF48B14FF0E0234FF08052C3F895
:10413000042DBFF34F8FBFF36F8F01F0E3FA01201F
:1041400004B0BDE8F081019B002BD8D04FF05003A4
:1041500083F31188BFF36F8FBFF34F8FFEE7022EFB
:10416000D5D0019B1BB901F0CDFA0020E8E715B9C5
:1041700002A800F01BFF01F0C5FA00F01BFD01F0E2
:10418000A1FA94F84430FF2B08BF84F8448094F8D7
:104190004530FF2B08BF84F8458001F0B3FA01A930
:1041A00002A800F00FFF38BB01F08CFAA26BE36BA2
:1041B0009A420ED101F0A6FA019904F1100000F024
:1041C0007DFE2046FFF782FE00F0A0FD48B10125EC
:1041D00097E701F097FA2046FFF778FE00F096FD8A
:1041E000F5E74FF0E0234FF08052C3F8042DBFF302
:1041F0004F8FBFF36F8FEAE72046FFF767FE00F0AF
:1042000085FDB2E713B500220B4600901146012050
:10421000FFF7D1FE044638B1002383600360C3601A
:104220001A461946FFF73CFF204602B010BD38B5CC
:10423000044640B94FF0500383F31188BFF36F8FEA
:10424000BFF34F8FFEE7856800F0FEFE85420BD17D
:10425000E368013BE3600BB1012038BD1A46194603
:104260002046FFF71DFFF7E70020F6E770B506468A
:10427000502001F08DFB044698B100250121C0E9D2
:104280000F1580F846500060FFF756FE84F84C602A
:10429000A5602560E5602B462A4629462046FFF7A3
:1042A000FFFE204670BD2DE9F843894617461E469D
:1042B000044640B94FF0500383F31188BFF36F8F6A
:1042C000BFF34F8FFEE751B9036C43B14FF050037A
:1042D00083F31188BFF36F8FBFF34F8FFEE7022E7A
:1042E0000BD1E36B012B08D04FF0500383F31188FF
:1042F000BFF36F8FBFF34F8FFEE701F0F5FAEFF3D7
:1043000011884FF0500383F31188BFF36F8FBFF311
:104310004F8FA26BE36B9A4201D3022E1ED194F809
:104320004550A36B6DB2324649462046FFF785FDE6
:104330006B1C0ED1636A3BB104F1240000F0F6FD62
:1043400010B10FB101233B60012088F31188BDE853
:10435000F88301356DB284F84550F5E70020F4E7A5
:104360002DE9FF410E460192044640B94FF050033B
:1043700083F31188BFF36F8FBFF34F8FFEE751B9FF
:10438000036C43B14FF0500383F31188BFF36F8F79
:10439000BFF34F8FFEE700F05DFE054618B3002522
:1043A0004FF0000801F08EF9A76B47B33146204665
:1043B000013FFFF775FDA763236973B104F1100096
:1043C00000F0B4FD48B14FF0E0234FF08052C3F845
:1043D000042DBFF34F8FBFF36F8F01F093F90120CE
:1043E00004B0BDE8F081019B002BD9D04FF0500301
:1043F00083F31188BFF36F8FBFF34F8FFEE7019BED
:104400001BB901F07FF90020EAE715B902A800F016
:10441000CDFD01F077F900F0CDFB01F053F994F8F0
:104420004430FF2B08BF84F8448094F84530FF2BBC
:1044300008BF84F8458001F065F901A902A800F0E1
:10444000C1FD00BB2046FFF7EDFCB0B1019904F1BE
:10445000240000F033FD2046FFF738FD00F056FC45
:1044600048B94FF0E0234FF08052C3F8042DBFF35A
:104470004F8FBFF36F8F012594E72046FFF726FD8E
:1044800000F044FCF7E72046FFF720FD00F03EFC7B
:104490002046FFF7C7FC0028EDD0B4E7F0B585B0A3
:1044A0000446019140B94FF0500383F31188BFF3E4
:1044B0006F8FBFF34F8FFEE7056C45B14FF0500390
:1044C00083F31188BFF36F8FBFF34F8FFEE700F0C8
:1044D000C1FD064620B32E46002701F0F3F8A36B7A
:1044E00053B3013BA363236813B900F091FEA060AE
:1044F000236973B104F1100000F018FD48B14FF0CA
:10450000E0234FF08052C3F8042DBFF34F8FBFF369
:104510006F8F01F0F7F8012005B0F0BD3546DBE7FD
:10452000019B002BFAD04FF0500383F31188BFF3A7
:104530006F8FBFF34F8FFEE7019B53B9002D66D0FD
:104540004FF0500383F31188BFF36F8FBFF34F8F8A
:10455000FEE716B902A800F029FD01F0D3F800F03B
:1045600029FB01F0AFF894F84430FF2B08BF84F822
:10457000447094F84530FF2B08BF84F8457001F073
:10458000C1F801A902A800F01DFD50BB2046FFF7AD
:1045900049FC00B323683BB901F094F8A06800F02F
:1045A00069FD054601F0AEF8019904F1240000F020
:1045B00085FC2046FFF78AFC00F0A8FB48B94FF0C5
:1045C000E0234FF08052C3F8042DBFF34F8FBFF3A9
:1045D0006F8F012681E72046FFF778FC00F096FBFD
:1045E000F7E72046FFF772FC00F090FB2046FFF74C
:1045F00019FC0028EDD065B101F064F8616A19B1C9
:10460000236B1968C1F13801A06800F0B3FD01F017
:1046100079F8002080E770B50D46044640B94FF0A8
:10462000500383F31188BFF36F8FBFF34F8FFEE703
:10463000866800F009FD864204D1E3680133E36037
:10464000012070BD29462046FFF728FF0028F8D03A
:10465000E3680133E360F4E72DE9F84389469046C7
:10466000044640B94FF0500383F31188BFF36F8FB6
:10467000BFF34F8FFEE751B9036C43B14FF05003C6
:1046800083F31188BFF36F8FBFF34F8FFEE701F005
:104690002BF9EFF311874FF0500383F31188BFF329
:1046A0006F8FBFF34F8FA56B0DB394F844604946ED
:1046B00076B22046FFF7F4FB013D731CA56311D1D0
:1046C000236953B104F1100000F030FC28B1B8F1B7
:1046D000000F02D00123C8F80030012087F31188B1
:1046E000BDE8F883013676B284F84460F5E72846E1
:1046F000F4E7000030B5074A002352F8335002EBCC
:10470000C3041DB942F83310606030BD0133082B7B
:10471000F3D1FAE7D40E002070B504460D461646D4
:1047200000F0D0FF94F84430FF2B04BF002384F83E
:10473000443094F84530FF2B04BF002384F8453003
:1047400000F0E0FFA36B2BB93246294604F12400A8
:1047500000F0CEFB2046BDE87040FFF7B7BB00007D
:104760002DE9F041044600F0ADFF304B304E1A68A1
:10477000304F01321A603568002D4BD134601B6810
:10478000012B1FD1B84640460135FFF70BFB382DF2
:1047900008F11408F7D1DFF8C480274D4046FFF731
:1047A00001FB2846FFF7FEFA2448FFF7FBFA2448EE
:1047B000FFF7F8FA2348FFF7F5FA234BC3F8008018
:1047C000224B1D60224A136801331360214A63643F
:1047D0001168E36A14208B4200FB037004F10401AA
:1047E00088BF1360FFF7ECFA00F08CFF1A4B1B68D0
:1047F00073B13368DA6AE36A9A4209D24FF0E02370
:104800004FF08052C3F8042DBFF34F8FBFF36F8F6B
:10481000BDE8F081104B1A68E36A002AD2D13268F1
:10482000D26A9A4298BF3460CCE700BF380F0020AC
:104830000C140020AC0F0020840F0020680F002013
:10484000540F00203C0F0020800F00207C0F002020
:104850001C0F0020300F00202C0F0020980F00208C
:10486000F8B5154B154D1C680646286804300F46F0
:10487000FFF7C8FA731C07D137B129681048BDE8A3
:10488000F8400431FFF79CBA2B68A4195C6007D389
:104890000C4B18682968BDE8F8400431FFF79BBA53
:1048A000094B186829680431FFF795FA074B1A6815
:1048B000A24288BF1C60F8BD340F00200C140020F9
:1048C0003C0F00207C0F0020800F0020180F0020DC
:1048D000064A13681968064B19B94FF0FF321A607F
:1048E00070471268D268D2685268F8E7800F0020DB
:1048F000180F002010B50446543002F0DDF994F88A
:10490000A5303BB9206B01F0DBF82046BDE8104034
:1049100001F0D6B8012BF8D0022B08D04FF050038D
:1049200083F31188BFF36F8FBFF34F8FFEE710BD86
:1049300080B5134C134F144D236873B9134B1B6888
:10494000012BF8D94FF0E0234FF08052C3F8042D2B
:10495000BFF34F8FBFF36F8FEDE700F0B3FEFB683F
:10496000DE68301DFFF74EFA2B68013B2B60236891
:10497000013B236000F0C6FE3046FFF7BBFFDBE7DC
:10498000500F0020540F0020380F0020AC0F0020E3
:104990002DE9F047DDE909949600324607460D46B9
:1049A000206BA521984602F0DAF8236B043E1E44E2
:1049B00026F00706002D41D06B1E04F133020F359F
:1049C00013F8011F02F8011F09B1AB42F8D100230F
:1049D00084F84330089D372D28BF37254FF0000A53
:1049E000E562E564201DC4F850A0FFF7E6F9C5F1C3
:1049F000380504F11800FFF7E0F9C4F8A0A04C2234
:104A000051462461A561646284F8A4A004F15400B5
:104A100002F0A5F80B4BA36503F16802D033E26501
:104A2000236642463946304600F024FE2060B9F144
:104A3000000F01D0C9F80040BDE8F08784F8345079
:104A4000C8E700BF6451002070B586B0DDE90B54A3
:104A500045B94FF0500383F31188BFF36F8FBFF355
:104A60004F8FFEE744B94FF0500383F31188BFF333
:104A70006F8FBFF34F8FFEE7A8260596059EA82EE1
:104A800008D04FF0500383F31188BFF36F8FBFF34B
:104A90004F8FFEE72563022584F8A55004AD0195EC
:104AA0000A9D02940095059EFFF772FF2046FFF7CE
:104AB00057FE049806B070BD2DE9F043074685B057
:104AC000900088461646994600F062FF054620B9D8
:104AD0004FF0FF3005B0BDE8F083A82000F058FF8C
:104AE000044698B1002380F8A5300D9B056301931F
:104AF0000C9B0290009332464B4641463846FFF7E6
:104B000047FF2046FFF72CFE0120E3E7284600F090
:104B1000D7FFDDE710B588B0002407AA06A905A8CD
:104B2000CDE90544FFF726F9059B0293069B079AFA
:104B300019491A48CDE900432346FFF785FF40B3E2
:104B400000F0C4FB012819D14FF0500383F3118802
:104B5000BFF36F8FBFF34F8F114B124A1B68543353
:104B60001360114B4FF0FF321A60104B1860104B5E
:104B70001C6008B0BDE8104000F034BE013008D120
:104B80004FF0500383F31188BFF36F8FBFF34F8F44
:104B9000FEE708B010BD00BF3BDA0008314900084D
:104BA0000C1400209C010020180F00202C0F002066
:104BB000340F0020024A136801331360704700BFAE
:104BC000140F0020014B1868704700BF340F0020FD
:104BD00008B500F089FE014B186808BD340F0020AD
:104BE0003F4B1B682DE9F74F002B72D13D4B1C68E2
:104BF00001341C60BCB93C4B1A68126842B14FF0DA
:104C0000500383F31188BFF36F8FBFF34F8FFEE71D
:104C1000364A1968106818601160354A1368013304
:104C20001360FFF755FE334D334E2B68334F9C42D4
:104C30004FF0000B12D23A68D26A14214A43B2589C
:104C4000022A2F4A126828BF4FF0010B002A18BF12
:104C50004FF0010B584603B0BDE8F08FDFF88890A5
:104C6000DFF8A4A0D9F8002012681AB94FF0FF327B
:104C70002A60E0E7D9F80020D268D2F80C80D8F892
:104C800004108C4201D22960D5E708F104031846CC
:104C90000193FFF7B7F8D8F8281019B108F11800F8
:104CA000FFF7B0F8D8F82C00DAF800101423884287
:104CB00088BFCAF80000019903FB0060FFF780F885
:104CC0003868D8F82C10C26A914228BF4FF0010B07
:104CD000C8E70C4A1368013313604FF0000BB9E7C3
:104CE000140F0020340F0020800F00207C0F0020C4
:104CF000200F0020180F0020AC0F00200C14002003
:104D0000240F0020280F0020300F00202DE9F04153
:104D1000304C236843B94FF0500383F31188BFF33D
:104D20006F8FBFF34F8FFEE700F0CCFC2368013B91
:104D3000236024682CB1002400F0E4FC2046BDE888
:104D4000F081254B1B68002BF5D0244D244EDFF855
:104D5000A0801DE0EB68DC68271D04F11800FFF758
:104D600051F83846FFF74EF8E36A32681420934250
:104D700000FB0380394688BF3360FFF721F8194BE9
:104D8000E26A1B68DB6A9A4202D3174B01221A605F
:104D90002B68002BDED10CB1FFF79AFD134D2C6868
:104DA00044B1114E0127FFF71BFF00B13760013CF2
:104DB000F9D12C600C4B1B68002BBCD04FF0E023CA
:104DC0004FF08052C3F8042DBFF34F8FBFF36F8FA6
:104DD0000124B1E7140F0020380F0020680F0020D5
:104DE000300F00200C140020240F0020280F00207A
:104DF000AC0F002008B550B94FF0E0234FF08052BF
:104E0000C3F8042DBFF34F8FBFF36F8F08BD0A4B5C
:104E1000196841B14FF0500383F31188BFF36F8FCE
:104E2000BFF34F8FFEE7FFF7C5FEFFF719FDFFF752
:104E30006DFF0028E0D0E9E7140F0020194B1A6835
:104E4000194B70B512B101221A6070BD174D1A606E
:104E50002A681749142606FB02F3C818CC58ACB1CF
:104E600044680833646844600B449C4204BF636830
:104E70004360142303FB02114B68D9680D4B196082
:104E80002A601B680C4A54331360DEE742B94FF0C6
:104E9000500383F31188BFF36F8FBFF34F8FFEE78B
:104EA000013AD8E7140F0020240F0020300F002013
:104EB000AC0F00200C1400209C01002010B50C4603
:104EC00040B94FF0500383F31188BFF36F8FBFF3E6
:104ED0004F8FFEE7054B19681831FEF77CFF20461F
:104EE0000121BDE81040FFF7BBBC00BF0C1400203F
:104EF00038B50D46144640B94FF0500383F311887E
:104F0000BFF36F8FBFF34F8FFEE7074B1968183160
:104F1000FEF756FF002C21460CBF28464FF0FF300D
:104F2000BDE83840FFF79CBC0C14002038B5C368BE
:104F3000DC6844B94FF0500383F31188BFF36F8FDF
:104F4000BFF34F8FFEE704F118052846FEF75AFF1E
:104F5000104B1B68DBB9251D2846FEF753FF0E4A90
:104F6000E36A11688B4288BF13600C4A14202946FB
:104F700000FB0320FEF724FF094BE26A1B68DB6A93
:104F80009A4283BF074B01201860002038BD0648B5
:104F90002946EFE7140F0020300F0020AC0F00204F
:104FA0000C140020240F0020680F0020034B1B6806
:104FB0000360034B1B684360704700BF200F002055
:104FC000340F002070B50C46054640B94FF0500331
:104FD00083F31188BFF36F8FBFF34F8FFEE741B9A3
:104FE0004FF0500383F31188BFF36F8FBFF34F8FE0
:104FF000FEE700F067FB0F4B196823685A1C10D0BE
:105000000D482E6800686A68864201D08A420FD92E
:10501000881A83420AD95B1A134423602846FFF793
:10502000C5FF002400F06EFB204670BD0023236006
:105030000124F7E7340F0020200F0020014B01224C
:105040001A607047240F0020014B1868704700BF9A
:105050000C140020054B1B6833B1054B1868B0FADF
:1050600080F0400940007047012070472C0F00205D
:10507000140F0020F8B5044638B31A4DC36A2A68E5
:10508000D26A934226D28269174E002AA1BF2A68AB
:10509000D26AC2F138028261142202FB03634269C0
:1050A0009A4213D1071D3846FEF7ACFE2B680F4A13
:1050B000DB6A1168E36214208B4200FB036039460F
:1050C00088BF1360FEF77CFE0120F8BD2B68DB6A09
:1050D000C362F9E72B68C06CDB6A98422CBF0020E2
:1050E0000120F2E70C140020AC0F0020300F00204C
:1050F00038B508B9002038BD1B4B1C68844208D065
:105100004FF0500383F31188BFF36F8FBFF34F8FBE
:10511000FEE7236D43B94FF0500383F31188BFF3CB
:105120006F8FBFF34F8FFEE7E16AE26C013B914264
:105130002365DFD0002BDDD1251D2846FEF762FE5A
:10514000E36CE362C3F13802A261084A11688B4242
:1051500088BF1360064A142000FB03202946FEF78F
:105160002FFE0120C7E700BF0C140020300F0020E5
:10517000AC0F002070B50446002841D0026D42B942
:105180004FF0500383F31188BFF36F8FBFF34F8F3E
:10519000FEE7C36C994238BF1946C36A8B422FD0D1
:1051A000012A2DD1174A1268824208D14FF05003CC
:1051B00083F31188BFF36F8FBFF34F8FFEE78269D0
:1051C000114DC162002A4FF0140202FB03534269E1
:1051D000A4BFC1F1380181619A4211D1061D304648
:1051E000FEF710FE094AE36A116814208B4200FBA7
:1051F00003503146BDE8704088BF1360FEF7E0BD44
:1052000070BD00BF0C140020AC0F0020300F002038
:10521000044B1A681AB119680A6D01320A651868D8
:10522000704700BF0C140020914208B54160006136
:105230000AD8D21A83699A420DD2084B011D186808
:10524000FEF7C9FD002008BD9A4201D2994202D260
:10525000034B011DF3E70120F5E700BF0C1500200B
:1052600010150020F7B5114C00F02CFA2568BDB9D7
:105270000F4F104E3846FEF795FD3046FEF792FD73
:105280000D4B0E4A1F600E4B10211E600A200D4B65
:105290000095FEF790FE206010B10B49FFF72AFA47
:1052A00003B0BDE8F04000F02DBA00BF08150020A3
:1052B000281500201415002010150020601400206F
:1052C0000C1500201014002040DA000810B588B03A
:1052D000FFF7C8FF124B1B68B3B1002407AA06A949
:1052E00005A8CDE90544FEF751FD059B0293069BF9
:1052F000019302230093079A0A490B482346FFF7BC
:10530000A3FB0A4B186040B94FF0500383F3118898
:10531000BFF36F8FBFF34F8FFEE7012008B010BDC2
:105320000815002045DA00082D5400080415002057
:105330007FB5164604461A4640B94FF0500383F332
:105340001188BFF36F8FBFF34F8FFEE70D4D2868B5
:1053500080B10529CDE9001602940DDCFFF77AFE35
:105360000023022808BF089A286818BF1A46694611
:10537000FEF796FE04B070BD00236946FEF793FF6A
:10538000F8E700BF081500202DE9F347DFF8988003
:105390000646FFF717FCD8F800308342054609D9C6
:1053A0001F4F3B681A686AB91E4A1168396013605A
:1053B000012300E0002328463360C8F8005002B003
:1053C000BDE8F087DB68DC68D3F8009004F1040ADC
:1053D0005046FEF717FD236A2046984794F8283078
:1053E0005B07DED5A3694B44994506D238686360F4
:1053F00024615146FEF7EFFCD3E7002300934A46B1
:1054000019462046FFF794FF0028CAD14FF05003F9
:1054100083F31188BFF36F8FBFF34F8FFEE700BF99
:10542000101500200C150020001500202DE9F04378
:105430006E4D6F4E89B02B68D3F80080B8F1000F25
:1054400035D0DB68D3F800800024FFF7B3FB04A855
:10545000FFF79AFF049B8146002B69D1002C4CD1A9
:10546000404550D3FFF752FC2B68DB68DF68381DDE
:10547000FEF7C8FC97F8283058071AD5B969434693
:105480004A4641443846FFF7CFFEB0B10094234668
:10549000424621463846FFF74BFF70B94FF05003A4
:1054A00083F31188BFF36F8FBFF34F8FFEE70124A3
:1054B000CBE723F0010387F828303B6A384698474A
:1054C0003068002204A9FEF74BFF0028B3D0049BEC
:1054D0000698002B2FDB069C6369002B32D103A8B2
:1054E000FFF752FF049B0246092BE9D8DFE803F0DF
:1054F0002E2E2E575E762E2E575E3E4B1B681C6856
:10550000B4FA84F4640930682246A8EB0901FFF775
:1055100003F9FFF7FBFB0028D2D14FF0E0234FF057
:105520008052C3F8042DBFF34F8FBFF36F8FC7E7CF
:10553000FFF7ECFBC4E7059B07999847049B002BFA
:10554000BEDBC8E7201DFEF75DFCC8E794F82830F5
:10555000A16943F0010384F82830059B20461944D3
:10556000FFF762FE0028ABD0236A2046984794F8E4
:1055700028305907A4D5A269059900230A4400934D
:1055800019462046FFF7D4FE002899D14FF050036A
:1055900083F31188BFF36F8FBFF34F8FFEE794F84B
:1055A000283023F0010384F8283089E794F8283064
:1055B00043F0010384F828300599A16141B94FF007
:1055C000500383F31188BFF36F8FBFF34F8FFEE754
:1055D000034601442046FFF727FE71E794F8283080
:1055E0009A07DED4204600F06BFA69E71015002018
:1055F000081500200C15002008480068006880F39A
:1056000008884FF0000080F3148862B661B6BFF3DB
:105610004F8FBFF36F8F00DF00BF000008ED00E089
:10562000DFF80C00016841F4700101607047000070
:1056300088ED00E082B0002301930D4B1B6801331D
:1056400008D04FF0500383F31188BFF36F8FBFF37F
:105650004F8FFEE74FF0500383F31188BFF36F8F36
:10566000BFF34F8F019B002BFCD002B0704700BFEF
:10567000200000204FF0807340F8043C074B40F8B6
:105680000C3C21F001016FF0020340F8081C40F8C7
:10569000202C40F8243C4438704700BF35560008A1
:1056A000074B19680868B0E8F04F80F30988BFF32A
:1056B0006F8F4FF0000080F311887047AFF30080C8
:1056C0000C1400204FF0500383F31188BFF36F8F49
:1056D000BFF34F8F0A4A13680133012B13600ED1B9
:1056E0004FF0E023D3F8043DDBB243B14FF0500359
:1056F00083F31188BFF36F8FBFF34F8FFEE77047BF
:1057000020000020084A136843B94FF0500383F388
:105710001188BFF36F8FBFF34F8FFEE7013B13601C
:105720000BB983F3118870472000002000000000AF
:10573000EFF30980BFF36F8F154B1A681EF0100F3F
:1057400008BF20ED108A20E9F04F10602DE9090014
:105750004FF0500080F31188BFF34F8FBFF36F8F6E
:10576000FFF76CFB4FF0000080F3118809BC19684B
:105770000868B0E8F04F1EF0100F08BFB0EC108AB8
:1057800080F30988BFF36F8F704700BFAFF30080CD
:105790000C14002008B54FF0500383F31188BFF3B9
:1057A0006F8FBFF34F8FFFF71BFA28B14FF0E02345
:1057B0004FF08052C3F8042D002383F3118808BDF5
:1057C0004FF0E022002313619361054B4FF47A718F
:1057D0001B68B3FBF1F3013B53610723136170476F
:1057E000140000204FF0E02337B5D3F8001D384AED
:1057F000914208D14FF0500383F31188BFF36F8FAC
:10580000BFF34F8FFEE7D3F8002D324B9A4208D1F9
:105810004FF0500383F31188BFF36F8FBFF34F8FA7
:10582000FEE72D4B1A78D2B20192FF221A701B7834
:105830002A4ADBB28DF803309DF8033003F05003A1
:105840001370274A072313609DF803101368090695
:105850000AD4032B11D04FF0500383F31188BFF308
:105860006F8FBFF34F8FFEE7013B13609DF803304E
:105870005B00DBB28DF80330E6E74FF44073136052
:10588000019B154A4FF0E024DBB21370D4F8203DA1
:1058900043F47003C4F8203DD4F8203D43F0704336
:1058A000C4F8203DFFF78CFF0E4B00251D60FFF76D
:1058B000B7FED4F8343F43F04043C4F8343FFFF719
:1058C0009BFEFFF7BBFAFFF7B5FE284603B030BDDD
:1058D00071C20F4170C20F4100E400E0401500208A
:1058E0003C15002020000020EFF305830F2B0ED97C
:1058F000114A9B5C114A12789A4208D94FF0500322
:1059000083F31188BFF36F8FBFF34F8FFEE74FF024
:10591000E0230B4AD3F80C3D126803F4E063934292
:1059200008D94FF0500383F31188BFF36F8FBFF393
:105930004F8FFEE7704700BFF0E300E04015002006
:105940003C15002010B5104B1A461B688342FBD350
:1059500054681119884201BF416810460919516005
:10596000446801198B420CD1084909688B4203D065
:1059700059682144416019680160904218BF106065
:1059800010BD1946F8E700BF5C150020581500202F
:105990002DE9F0410446FFF70DF94249424D0B68ED
:1059A0000BBB424A56071FBFD01D20F0070002F56F
:1059B0007052131A0CBF4FF47053024613443C4EFE
:1059C000083B23F00703002070603260C3E9000049
:1059D000981AC2E900300B60364B1860364B1860DD
:1059E0004FF000432B602E68264255D1002C46D044
:1059F00004F1080360071CBF23F007030833002BE2
:105A00004AD02D4F3C689C4246D3294A15686868A5
:105A1000984204D2D5F800C0BCF1000F15D1096836
:105A2000A94239D02968D2F800801160C21A102A20
:105A300012D9E81841070BD04FF0500383F31188B7
:105A4000BFF36F8FBFF34F8FFEE72A466546DEE751
:105A500042606B60FFF776FF6A681649A41A164326
:105A6000164A08683C6000232B6013686E6084420D
:105A700003F1010338BF0C60136008F10804FFF75D
:105A800045F963070AD04FF0500383F31188BFF341
:105A90006F8FBFF34F8FFEE70024F0E72046BDE88D
:105AA000F08100BF58150020441500206415002027
:105AB0005C15002050150020541500204C150020C6
:105AC00010B5044690B31A4A50F8043C12681342C9
:105AD00008D14FF0500383F31188BFF36F8FBFF3EA
